{
  "contractName": "MinterRole",
  "abi": [
    {
      "inputs": [],
      "stateMutability": "nonpayable",
      "type": "constructor"
    },
    {
      "anonymous": false,
      "inputs": [
        {
          "indexed": true,
          "internalType": "address",
          "name": "account",
          "type": "address"
        }
      ],
      "name": "MinterAdded",
      "type": "event"
    },
    {
      "anonymous": false,
      "inputs": [
        {
          "indexed": true,
          "internalType": "address",
          "name": "account",
          "type": "address"
        }
      ],
      "name": "MinterRemoved",
      "type": "event"
    },
    {
      "inputs": [
        {
          "internalType": "address",
          "name": "account",
          "type": "address"
        }
      ],
      "name": "addMinter",
      "outputs": [],
      "stateMutability": "nonpayable",
      "type": "function"
    },
    {
      "inputs": [],
      "name": "removeMinter",
      "outputs": [],
      "stateMutability": "nonpayable",
      "type": "function"
    },
    {
      "inputs": [
        {
          "internalType": "address",
          "name": "account",
          "type": "address"
        }
      ],
      "name": "isMinter",
      "outputs": [
        {
          "internalType": "bool",
          "name": "",
          "type": "bool"
        }
      ],
      "stateMutability": "view",
      "type": "function"
    }
  ],
  "bytecode": "0x608060405234801561001057600080fd5b5061001a3361001f565b610172565b61003781600061006e60201b6101261790919060201c565b6040516001600160a01b038216907f6ae172837ea30b801fbfcdd4108aa1d5bf8ff775444fd70256b44e6bf3dfc3f690600090a250565b61007882826100ef565b156100ca5760405162461bcd60e51b815260206004820152601f60248201527f526f6c65733a206163636f756e7420616c72656164792068617320726f6c650060448201526064015b60405180910390fd5b6001600160a01b0316600090815260209190915260409020805460ff19166001179055565b60006001600160a01b0382166101525760405162461bcd60e51b815260206004820152602260248201527f526f6c65733a206163636f756e7420697320746865207a65726f206164647265604482015261737360f01b60648201526084016100c1565b506001600160a01b03166000908152602091909152604090205460ff1690565b610391806101816000396000f3fe608060405234801561001057600080fd5b50600436106100415760003560e01c8063983b2d5614610046578063aa271e1a1461005b578063ea72156914610082575b600080fd5b61005961005436600461032b565b61008a565b005b61006e61006936600461032b565b610109565b604051901515815260200160405180910390f35b61005961011b565b61009333610109565b6100fd5760405162461bcd60e51b815260206004820152603060248201527f4d696e746572526f6c653a2063616c6c657220646f6573206e6f74206861766560448201526f20746865204d696e74657220526f6c6560801b60648201526084015b60405180910390fd5b610106816101a2565b50565b600061011581836101e4565b92915050565b61012433610267565b565b61013082826101e4565b1561017d5760405162461bcd60e51b815260206004820152601f60248201527f526f6c65733a206163636f756e7420616c72656164792068617320726f6c650060448201526064016100f4565b6001600160a01b0316600090815260209190915260409020805460ff19166001179055565b6101ad600082610126565b6040516001600160a01b038216907f6ae172837ea30b801fbfcdd4108aa1d5bf8ff775444fd70256b44e6bf3dfc3f690600090a250565b60006001600160a01b0382166102475760405162461bcd60e51b815260206004820152602260248201527f526f6c65733a206163636f756e7420697320746865207a65726f206164647265604482015261737360f01b60648201526084016100f4565b506001600160a01b03166000908152602091909152604090205460ff1690565b6102726000826102a9565b6040516001600160a01b038216907fe94479a9f7e1952cc78f2d6baab678adc1b772d936c6583def489e524cb6669290600090a250565b6102b382826101e4565b6103095760405162461bcd60e51b815260206004820152602160248201527f526f6c65733a206163636f756e7420646f6573206e6f74206861766520726f6c6044820152606560f81b60648201526084016100f4565b6001600160a01b0316600090815260209190915260409020805460ff19169055565b60006020828403121561033d57600080fd5b81356001600160a01b038116811461035457600080fd5b939250505056fea2646970667358221220310cf85d01b41d0c663d4a7b8694e830b1e455322831ae71ec7299fe138cb72c64736f6c63430008070033",
  "immutableReferences": {},
  "source": "// SPDX-License-Identifier: MIT\r\npragma solidity ^0.8.7;\r\n\r\nimport \"@openzeppelin/contracts/utils/Context.sol\";\r\nimport \"./Roles.sol\";\r\n\r\ncontract MinterRole is Context {\r\n  using Roles for Roles.Role;\r\n\r\n  event MinterAdded(address indexed account);\r\n  event MinterRemoved(address indexed account);\r\n\r\n  Roles.Role private _minters;\r\n\r\n  constructor() {\r\n    _addMinter(_msgSender());\r\n  }\r\n\r\n  modifier onlyMinter() {\r\n    require(isMinter(_msgSender()), \"MinterRole: caller does not have the Minter Role\");\r\n    _;\r\n  }\r\n\r\n  function addMinter(address account) public onlyMinter {\r\n    _addMinter(account);\r\n  }\r\n\r\n  function removeMinter() public {\r\n    _removeMinter(_msgSender());\r\n  }\r\n\r\n  function isMinter(address account) public view returns(bool) {\r\n    return _minters.has(account);\r\n  }\r\n\r\n  function _addMinter(address account) internal {\r\n    _minters.add(account);\r\n    emit MinterAdded(account);\r\n  }\r\n\r\n  function _removeMinter(address account) internal {\r\n    _minters.remove(account);\r\n    emit MinterRemoved(account);\r\n  }\r\n}\r\n",
  "sourcePath": "C:\\all\\solidity\\guide-Thomas&Ravinder\\sec9\\tokenizationMintable\\contracts\\MinterRole.sol",
  "compiler": {
    "name": "solc",
    "version": "0.8.7+commit.e28d00a7.Emscripten.clang"
  },
  "schemaVersion": "3.4.7",
  "updatedAt": "2022-05-14T09:02:13.213Z",
  "devdoc": {
    "kind": "dev",
    "methods": {},
    "version": 1
  },
  "userdoc": {
    "kind": "user",
    "methods": {},
    "version": 1
  }
}